:1000000080311228640008007E1480312000911C89
:100010000A280B2810288E319F268031200091104D
:100020007E100900803114283330840000308500B0
:100030000D308D317D2580317E1020008D31B32D26
:1000400000340234033402340634023409340234F6
:100050000C3402340F3402341234023415340234B6
:10006000193402341C3402341F3402342234023472
:1000700025340234283402342B3402342F34023431
:100080003234023435340234383402343B340234EE
:100090003E340234413402344434023447340234AE
:1000A0004B3402344E34023451340234543402346A
:1000B000573402345A3402345D340234603402342A
:1000C0006334023466340234693402346D340234E9
:1000D00070340234733402347634023479340234A6
:1000E0007C3402347F340234823402348534023466
:1000F000883402348B3402348E3402349134023426
:1001000094340234973402349A3402349D340234E5
:10011000A0340234A3340234A6340234A9340234A5
:10012000AC340234AF340234B2340234B534023465
:10013000B8340234BB340234BD340234C034023427
:10014000C3340234C6340234C9340234CC340234E9
:10015000CF340234D2340234D5340234D7340234AA
:10016000DA340234DD340234E0340234E33402346D
:10017000E5340234E8340234EB340234EE34023431
:10018000F1340234F3340234F6340234F9340234F4
:10019000FC340234FE3402340134033404340334B6
:1001A00006340334093403340C3403340E3403347A
:1001B000113403341434033416340334193403343F
:1001C0001C3403341E340334213403342334033405
:1001D00026340334293403342B3403342E340334CB
:1001E0003034033433340334353403343834033493
:1001F0003A3403343D3403343F340334423403345B
:100200004434033446340334493403344B34033424
:100210004E340334503403345234033455340334ED
:1002200057340334593403345C3403345E340334B8
:100230006034033462340334653403346734033484
:10024000693403346B3403346E3403347034033450
:10025000723403347434033476340334783403341E
:100260007A3403347D3403347F34033481340334EB
:1002700083340334853403348734033489340334BA
:100280008B3403348D3403348F340334913403348A
:10029000933403349534033497340334983403345B
:1002A0009A3403349C3403349E340334A03403342E
:1002B000A2340334A3340334A5340334A734033401
:1002C000A9340334AB340334AC340334AE340334D4
:1002D000B0340334B1340334B3340334B5340334A9
:1002E000B6340334B8340334B9340334BB34033480
:1002F000BD340334BE340334C0340334C134033456
:10030000C3340334C4340334C6340334C73403342D
:10031000C8340334CA340334CB340334CD34033407
:10032000CE340334CF340334D1340334D2340334E1
:10033000D3340334D4340334D6340334D7340334BD
:10034000D8340334D9340334DA340334DC3403349A
:10035000DD340334DE340334DF340334E034033477
:10036000E1340334E2340334E3340334E434033457
:10037000E5340334E6340334E7340334E834033437
:10038000E9340334EA340334EB340334EC34033417
:10039000EC340334ED340334EE340334EF340334FB
:1003A000F0340334F0340334F1340334F2340334DE
:1003B000F3340334F3340334F4340334F5340334C2
:1003C000F5340334F6340334F6340334F7340334A9
:1003D000F7340334F8340334F9340334F934033490
:1003E000F9340334FA340334FA340334FB34033479
:1003F000FB340334FC340334FC340334FC34033462
:10040000FD340334FD340334FD340334FD3403344C
:10041000FE340334FE340334FE340334FE34033438
:10042000FE340334FF340334FF340334FF34033425
:10043000FF340334FF340334FF340334FF34033414
:10044000FF340334FF340334FF340334FF34033404
:10045000FF340334FF340334FF340334FF340334F4
:10046000FE340334FE340334FE340334FE340334E8
:10047000FE340334FD340334FD340334FD340334DB
:10048000FD340334FC340334FC340334FC340334CF
:10049000FB340334FB340334FA340334FA340334C6
:1004A000F9340334F9340334F9340334F8340334BD
:1004B000F7340334F7340334F6340334F6340334B6
:1004C000F5340334F5340334F4340334F3340334AF
:1004D000F3340334F2340334F1340334F0340334AA
:1004E000F0340334EF340334EE340334ED340334A6
:1004F000EC340334EC340334EB340334EA340334A3
:10050000E9340334E8340334E7340334E6340334A1
:10051000E5340334E4340334E3340334E2340334A1
:10052000E1340334E0340334DF340334DE340334A1
:10053000DD340334DC340334DA340334D9340334A3
:10054000D8340334D7340334D6340334D4340334A6
:10055000D3340334D2340334D1340334CF340334AA
:10056000CE340334CD340334CB340334CA340334AF
:10057000C8340334C7340334C6340334C4340334B6
:10058000C3340334C1340334C0340334BE340334BD
:10059000BD340334BB340334B9340334B8340334C6
:1005A000B6340334B5340334B3340334B1340334D0
:1005B000B0340334AE340334AC340334AB340334DA
:1005C000A9340334A7340334A5340334A3340334E7
:1005D000A2340334A03403349E3403349C340334F3
:1005E0009A34033498340334973403349534033401
:1005F00093340334913403348F3403348D3403340F
:100600008B3403348934033487340334853403341E
:1006100083340334813403347F3403347D3403342E
:100620007A34033478340334763403347434033442
:1006300072340334703403346E3403346B34033453
:100640006934033467340334653403346234033467
:10065000603403345E3403345C340334593403347B
:100660005734033455340334523403345034033490
:100670004E3403344B3403344934033446340334A6
:1006800044340334423403343F3403343D340334BC
:100690003A340334383403343534033433340334D4
:1006A000303403342E3403342B34033429340334EC
:1006B0002634033423340334213403341E34033406
:1006C0001C3403341934033416340334143403341F
:1006D000113403340E3403340C340334093403343A
:1006E000063403340434033401340334FE34023456
:1006F000FC340234F9340234F6340234F334023474
:10070000F1340234EE340234EB340234E83402348F
:10071000E5340234E3340234E0340234DD340234AC
:10072000DA340234D7340234D5340234D2340234C9
:10073000CF340234CC340234C9340234C6340234E7
:10074000C3340234C0340234BD340234BB34023406
:10075000B8340234B5340234B2340234AF34023423
:10076000AC340234A9340234A6340234A334023443
:10077000A03402349D3402349A3402349734023463
:1007800094340234913402348E3402348B34023483
:100790008834023485340234823402347F340234A3
:1007A0007C340234793402347634023473340234C3
:1007B000703402346D3402346934023466340234E5
:1007C00063340234603402345D3402345A34023407
:1007D0005734023454340234513402344E34023427
:1007E0004B3402344734023444340234413402344A
:1007F0003E3402343B34023438340234353402346B
:10080000323402342F3402342B340234283402348C
:1008100025340234223402341F3402341C340234AE
:100820001934023415340234123402340F340234D1
:100830000C340234093402340634023403340234F2
:1008400000340234FC340134F9340134F634013418
:10085000F3340134F0340134ED340134EA3401343A
:10086000E6340134E3340134E0340134DD3401345E
:10087000DA340134D7340134D4340134D03401347F
:10088000CD340134CA340134C7340134C4340134A2
:10089000C1340134BE340134BB340134B8340134C2
:1008A000B4340134B1340134AE340134AB340134E6
:1008B000A8340134A5340134A23401349F34013406
:1008C0009C34013499340134963401349234013427
:1008D0008F3401348C34013489340134863401344A
:1008E00083340134803401347D3401347A3401346A
:1008F0007734013474340134713401346E3401348A
:100900006B340134683401346534013462340134A9
:100910005F3401345C3401345934013456340134C9
:1009200053340134503401344D3401344A340134E9
:100930004734013444340134423401343F34013407
:100940003C34013439340134363401343334013425
:10095000303401342D3401342A3401342834013444
:1009600025340134223401341F3401341C34013461
:100970001A3401341734013414340134113401347D
:100980000E3401340C34013409340134063401349A
:100990000334013401340134FE340034FB340034B8
:1009A000F9340034F6340034F3340034F1340034D4
:1009B000EE340034EB340034E9340034E6340034EF
:1009C000E3340034E1340034DE340034DC34003409
:1009D000D9340034D6340034D4340034D134003423
:1009E000CF340034CC340034CA340034C73400343B
:1009F000C5340034C2340034C0340034BD34003453
:100A0000BB340034B9340034B6340034B434003468
:100A1000B1340034AF340034AD340034AA3400347F
:100A2000A8340034A6340034A3340034A134003494
:100A30009F3400349D3400349A34003498340034A8
:100A40009634003494340034913400348F340034BC
:100A50008D3400348B3400348934003487340034CE
:100A60008534003482340034803400347E340034E1
:100A70007C3400347A3400347834003476340034F2
:100A80007434003472340034703400346E34003402
:100A90006C3400346A340034683400346734003411
:100AA0006534003463340034613400345F3400341E
:100AB0005D3400345C3400345A340034583400342B
:100AC0005634003454340034533400345134003438
:100AD0004F3400344E3400344C3400344A34003443
:100AE000493400344734003446340034443400344C
:100AF00042340034413400343F3400343E34003456
:100B00003C3400343B34003439340034383400345D
:100B10003734003435340034343400343234003463
:100B200031340034303400342E3400342D34003469
:100B30002C3400342B34003429340034283400346D
:100B40002734003426340034253400342334003470
:100B50002234003421340034203400341F34003473
:100B60001E3400341D3400341C3400341B34003473
:100B70001A34003419340034183400341734003473
:100B80001634003415340034143400341334003473
:100B9000133400341234003411340034103400346F
:100BA0000F3400340F3400340E3400340D3400346C
:100BB0000C3400340C3400340B3400340A34003468
:100BC0000A34003409340034093400340834003461
:100BD000083400340734003406340034063400345A
:100BE0000634003405340034053400340434003451
:100BF0000434003403340034033400340334003448
:100C0000023400340234003402340034023400343C
:100C10000134003401340034013400340134003430
:100C20000134003400340034003400340034003423
:100C30000034003400340034003400340034003414
:100C40000034003400340034003400340034003404
:100C500000340034003400340034003400340034F4
:100C600001340034013400340134003401340034E0
:100C700001340034023400340234003402340034CD
:100C800002340034033400340334003403340034B9
:100C900004340034043400340534003405340034A2
:100CA000063400340634003406340034073400348B
:100CB0000834003408340034093400340934003472
:100CC0000A3400340A3400340B3400340C34003459
:100CD0000C3400340D3400340E3400340F3400343E
:100CE0000F34003410340034113400341234003422
:100CF0001334003413340034143400341534003405
:100D000016340034173400341834003419340034E5
:100D10001A3400341B3400341C3400341D340034C5
:100D20001E3400341F3400342034003421340034A5
:100D30002234003423340034253400342634003483
:100D40002734003428340034293400342B34003460
:100D50002C3400342D3400342E340034303400343C
:100D60003134003432340034343400343534003417
:100D70003734003438340034393400343B340034F0
:100D80003C3400343E3400343F34003441340034C9
:100D900042340034443400344634003447340034A0
:100DA000493400344A3400344C3400344E34003476
:100DB0004F3400345134003453340034543400344C
:100DC00056340034583400345A3400345C3400341F
:100DD0005D3400345F3400346134003463340034F3
:100DE0006534003467340034683400346A340034C5
:100DF0006C3400346E340034703400347234003497
:100E00007434003476340034783400347A34003466
:100E10007C3400347E340034803400348234003436
:100E20008534003487340034893400348B34003402
:100E30008D3400348F3400349134003494340034D1
:100E400096340034983400349A3400349D3400349D
:100E50009F340034A1340034A3340034A634003469
:100E6000A8340034AA340034AD340034AF34003434
:100E7000B1340034B4340034B6340034B9340034FE
:100E8000BB340034BD340034C0340034C2340034C8
:100E9000C5340034C7340034CA340034CC34003490
:100EA000CF340034D1340034D4340034D634003458
:100EB000D9340034DC340034DE340034E13400341E
:100EC000E3340034E6340034E9340034EB340034E5
:100ED000EE340034F1340034F3340034F6340034AA
:100EE000F9340034FB340034FE340034013401346E
:100EF0000334013406340134093401340C34013430
:100F00000E340134113401341434013417340134F3
:100F10001A3401341C3401341F34013422340134B6
:100F200025340134283401342A3401342D34013479
:100F3000303401343334013436340134393401343B
:100F40003C3401343F3401344234013444340134FC
:100F5000473401344A3401344D34013450340134BF
:100F60005334013456340134593401345C3401347F
:100F70005F3401346234013465340134683401343F
:100F80006B3401346E3401347134013474340134FF
:100F9000773401347A3401347D34013480340134BF
:100FA0008334013486340134893401348C3401347F
:100FB0008F3401349234013496340134993401343D
:100FC0009C3401349F340134A2340134A5340134FB
:100FD000A8340134AB340134AE340134B1340134BB
:100FE000B4340134B8340134BB340134BE34013478
:100FF000C1340134C4340134C7340134CA34013437
:10100000CD340134D0340134D4340134D7340134F4
:10101000DA340134DD340134E0340134E3340134B2
:10102000E6340134EA340134ED340134F03401346F
:10103000F3340134F6340134F9340134FC3401342E
:101AC8002100171408003C302100990408008D31CA
:101AD8009A258D3108008D3177258D310800143015
:101AE8002100970008002C00131721008E12911472
:101AF8000800640080010131890B7E2D00347108D3
:101B0800F3007008F200F336F20CF336F20C7208A8
:101B18002C00920070080339F200F20EF20DF20D5B
:101B2800110872063F397206910008008B130B17D3
:101B380021008E162C009301FF3020009B002C0002
:101B480092019101200091109C011C152C00931703
:101B58002000911CB02DB12DAC2D8B1708008D31B4
:101B680067258D318D31CE258D318D3173258D31A0
:101B78008D316B258D318D3164258D318D316F25FA
:101B88008D318F3133278D31803102208D31C52D34
:101B98008031122820008C0122008C0124008C0145
:101BA8001B3021008C0023008C0120008D012200B5
:101BB8008D0124008D01F03021008D0023008D015E
:101BC80020008E0122008E01203021008E0023008B
:101BD8008E0108002000A200A401A301132E2208F0
:101BE800A000230AF82DA036890BF72D201CFD2D07
:101BF800FE2D0F2E2408333E860087012308003E61
:101C0800840090300318013E8500000881000130EF
:101C1800A0002008A4070130A0002008A30708306E
:101C280023020318182E192E1F2E04302402031C19
:101C38001E2E1F2EF32D04302402031C242E252EC5
:101C4800262E402E2408333E86008701810120304D
:101C5800840080308500003FA000013FA1002435AA
:101C6800373E860087012008C03F2108C13F013068
:101C7800A0002008A4071F2E08002000A3007C2E27
:101C8800200C2200031C0E1003180E149E2E200C8C
:101C98002200031C8E1003188E149E2E200C220086
:101CA800031C0E1103180E159E2E200C2200031C77
:101CB8008E1103188E159E2E200C2200031C0E1266
:101CC80003180E169E2E200C2200031C8C120318DB
:101CD8008C169E2E200C2200031C0E1303180E17C0
:101CE8009E2E200C2200031C8E1303188E179E2E86
:101CF8002308A100A2012208003A0319842E9E2E6F
:101D08002108003A0319442E013A03194B2E033ACD
:101D18000319522E013A0319592E073A0319602E56
:101D2800013A0319672E033A03196E2E013A031973
:101D3800752E9E2E0800F601F70120003808850050
:101D4800370884008435850D203084070030053D30
:101D580080388500003FF400013FF5007408F6075D
:101D68007508F73D3A088500390884008435850DE3
:101D7800203084070030053D80388500003FF4009E
:101D8800013FF5007408F6077508F73D3C08850023
:101D98003B0884008435850D203084070030053DDC
:101DA80080388500003FF400013FF5007408F6070D
:101DB8007508F73D3E0885003D0884008435850D8B
:101DC800203084070030053D80388500003FF4004E
:101DD800013FF5007408F6077508F73D3308370723
:101DE800F40038080318380AF500FF307405B70006
:101DF80003307505B80034083907F4003A080318A9
:101E08003A0AF500FF307405B90003307505BA00C9
:101E180035083B07F4003C0803183C0AF500FF307E
:101E28007405BB0003307505BC0036083D07F40097
:101E38003E0803183E0AF500FF307405BD00033064
:101E48007505BE000230F736F60C890B272F770888
:101E5800F1007608F0008D3183258E3108002000CE
:101E6800B001AD01AE010C080139A5000D0D0D0D35
:101E78000139A6000730A635890B3F2F0D0E890CB6
:101E8800890C0139A7000630A735890B482F0D0E9C
:101E9800890C0139A8000530A835890B502F0D0E83
:101EA8000139A9000430A935890B572F0C0E0139C7
:101EB800AA000330AA35890B5E2F0C0CAB00AB0CC3
:101EC8002B0C0139AC000230AC35890B682F0C0C97
:101ED800013909072C042A042904280427042604A4
:101EE8002504AF00B2013F08A500320A7C2FA536B1
:101EF800890B7B2F251C812F822F9D2F2F08A50052
:101F0800320A872FA536890B862F25188C2F8D2FFF
:101F18009D2F0130A500320A922FA535890B912FEC
:101F28002508A6002608B0040130A5002508AD073D
:101F3800A22FA00132088E3141268F3101302000B6
:101F4800A5002508B20708303202031CAC2FAD2FBC
:101F5800772FB101E02F20003F08A500310AB52FE7
:101F6800A536890BB42F2518BA2FBB2FDB2F2F08C6
:101F7800A500310AC02FA536890BBF2F2518C52FFC
:101F8800C62FDB2F0130A500310ACB2FA535890BD1
:101F9800CA2F2508A6002608B0040130A500250888
:101FA800AE07A001A00A31088E3141268F310130D9
:101FB8002000A5002508B107083031020318E52FD5
:101FC800E62FF82F0030A6002D08043CA500031CBE
:101FD800A6032608803A803C031DF42F25082E020C
:101FE800031CF72FF82FAF2F20003008BF00300850
:101FF8008D31EE258F31080017341A341D341F3403
:08200800223426342B342E345F
:020000040001F9
:04000E008C0FCF1F65
:00000001FF
